:100000000C9448050C9470050C9470050C947005C4
:100010000C9470050C9470050C9470050C9470058C
:100020000C9470050C9470050C9470050C9470057C
:100030000C9470050C9470050C9470050C9470056C
:100040000C94BF1A0C9470050C9470050C947005F8
:100050000C9470050C9470050C9470050C9470054C
:100060000C94091B0C94700500000000003E5B4FCF
:100070005B3E3E6B4F6B3E1C3E7C3E1C183C7E3C08
:10008000181C577D571C1C5E7F5E1C00183C180016
:10009000FFE7C3E7FF0018241800FFE7DBE7FF30A6
:1000A000483A060E2629792926407F050507407F14
:1000B00005253F5A3CE73C5A7F3E1C1C08081C1C87
:1000C0003E7F14227F22145F5F005F5F06097F017D
:1000D0007F006689956A606060606094A2FFA29468
:1000E00008047E040810207E201008082A1C080836
:1000F0001C2A08081E101010100C1E0C1E0C303884
:100100003E3830060E3E0E06000000000000005F84
:1001100000000007000700147F147F14242A7F2AA0
:100120001223130864623649562050000807030062
:10013000001C2241000041221C002A1C7F1C2A08AE
:10014000083E080800807030000808080808000011
:1001500060600020100804023E5149453E00427F85
:10016000400072494949462141494D331814127FD4
:100170001027454545393C4A494931412111090774
:100180003649494936464949291E000014000000F5
:1001900040340000000814224114141414140041C7
:1001A00022140802015909063E415D594E7C121184
:1001B000127C7F494949363E414141227F414141BC
:1001C0003E7F494949417F090909013E4141517337
:1001D0007F0808087F00417F41002040413F017FA8
:1001E000081422417F404040407F021C027F7F0470
:1001F00008107F3E4141413E7F090909063E4151B9
:10020000215E7F09192946264949493203017F01A8
:10021000033F4040403F1F2040201F3F4038403FA9
:10022000631408146303047804036159494D4300BF
:100230007F4141410204081020004141417F0402F6
:10024000010204404040404000030708002054548D
:1002500078407F284444383844444428384444286B
:100260007F385454541800087E090218A4A49C78BE
:100270007F0804047800447D40002040403D007F1A
:100280001028440000417F40007C047804787C08FA
:100290000404783844444438FC18242418182424CE
:1002A00018FC7C08040408485454542404043F44B3
:1002B000243C4040207C1C2040201C3C4030403CE2
:1002C00044281028444C9090907C4464544C440042
:1002D00008364100000077000000413608000201A6
:1002E0000204023C2623263C1EA1A161123A404092
:1002F000207A38545455592155557941225454780F
:1003000042215554784020545579400C1E527212A7
:100310003955555559395454545939555454580030
:1003200000457C410002457D420001457C407D1234
:1003300011127DF0282528F07C5455450020545496
:100340007C547C0A097F4932494949323A44444441
:100350003A324A4848303A4141217A3A424020787C
:10036000009DA0A07D3D4242423D3D4040403D3C7D
:1003700024FF2424487E4943662B2FFC2F2BFF09A2
:1003800029F620C0887E0903205454794100004496
:100390007D413048484A32384040227A007A0A0A81
:1003A000727D0D19317D2629292F282629292926F4
:1003B00030484D4020380808080808080808382F39
:1003C00010C8ACBA2F102834FA00007B00000814C3
:1003D0002A142222142A14085500550055AA55AA99
:1003E00055AAFF55FF55FF000000FF00101010FF39
:1003F00000141414FF001010FF00FF1010F010F094
:10040000141414FC001414F700FF0000FF00FF1484
:1004100014F404FC141417101F10101F101F1414D0
:10042000141F00101010F0000000001F101010101A
:100430001F10101010F010000000FF10101010100E
:1004400010101010FF10000000FF140000FF00FF4C
:1004500000001F10170000FC04F4141417101714E8
:1004600014F404F40000FF00F7141414141414140A
:10047000F700F7141414171410101F101F1414147D
:10048000F4141010F010F000001F101F0000001FE7
:1004900014000000FC140000F010F01010FF10FF1A
:1004A000141414FF141010101F00000000F010FFAF
:1004B000FFFFFFFFF0F0F0F0F0FFFFFF0000000093
:1004C00000FFFF0F0F0F0F0F3844443844FC4A4A17
:1004D0004A347E02020606027E027E0263554941CC
:1004E000633844443C04407E201E2006027E020203
:1004F00099A5E7A5991C2A492A1C4C7201724C3017
:100500004A4D4D303048784830BC625A463D3E49ED
:100510004949007E0101017E2A2A2A2A2A44445F91
:10052000444440514A444040444A51400000FF0185
:1005300003E080FF000008086B6B08361236243693
:10054000060F090F060000181800000010100030F8
:1005500040FF0101001F01011E00191D1712003C80
:100560003C3C3C0000000000000103070F1F3F7FE0
:100570000080C0E0F0F8FCFEDB40A4A62EAF200017
:10058000A1C8D300408DAED580A800006000000057
:100590000000000000000000000000E0000000007B
:1005A00000000000000000000001E000000000006A
:1005B000000000000000000001F00000000000004A
:1005C0000000000000000003F00000000000000038
:1005D00000000000000007F0000000000000000024
:1005E000000000000007F80000000000000000000C
:1005F000000000000FF800000003C0007E000001B2
:10060000E0007F0FF800000003C000FE000001E0E2
:1006100000FFEFF800000003C000FE000001E00052
:10062000FFFFF800000003C000F00000000F007F93
:10063000FE7FC0000003C000F00000000F003FFE7E
:100640007FF83FF1FBCFFCFEF3BC3DEFE01FFE7FE8
:10065000FF7FFBFFDFFEFEFFBC3DEFE01FC6FFFF9D
:100660007FFBFFDFFEFEFFBC3DEFE00FE3C7FE7840
:100670007BC3DE1EF0FFBC3DEF0007FF87FC787BED
:10068000C3DE1EF0F83C3DEF0001FFFFF0007BC32E
:10069000C01EF0F03C3DEF0001F37FE03FFBC3CF15
:1006A000FEF0F03C3DEF0003E33F807FFBC3DFFE45
:1006B000F0F03C3DEF0007E73C00787BC3DE1EF026
:1006C000F03C3DEF0007FFBE00787BC3DE1EF0F07C
:1006D0003C3DEF0007FFFE00787BC3DE1EF0F03CE0
:1006E0003DEF000FFFFE007FFBFFDFFEF0F03FFD60
:1006F000EFE00FFFFF007FFBFFDFFEF0F03FFDEFBD
:10070000E00FF9FF003E79F9CF9EF0F01F3DE7E0E2
:100710001FF1FF0000000000000000000000001FAB
:1007200080FF007FFFFFFFFFFFFFFFFFFFE01C00D8
:100730007F007FFFFFFFFEB46D888D18E000001F73
:10074000007FFFFFFFFE95AD7DB577E000000F0055
:100750007FFFFFFFFEA5AD9D8D19E0000006007F25
:10076000FFFFFFFEB5ADEDB57EE00000000000012B
:100770008000000000000000000003800000000076
:10078000000000000007C0000000000000000000A2
:1007900007C00000000000000000000FC0000000C3
:1007A0000000000000001FE000000000000000004A
:1007B000001FE00000000000000000003FE000001B
:1007C000000000000000003FF000000000000000FA
:1007D00000007FF0000000000000001FF87FF00024
:1007E0000000000000003FFE7FF00000000000005D
:1007F000003FFF7FF0000000000000001FFFFBE053
:10080000000000000000000FFFF9FFC00000000022
:1008100000000FFFF9FFF800000000000007FFF1E3
:10082000FFFF00000000000003FC73FFFF800000DA
:1008300000000001FE3FFFFF80000000000000FFFD
:100840001E0FFF000000000000007FFE1FFC0000E4
:1008500000000000003FFFFFF80000000000000063
:100860000FDFFFE0000000000000001F19FFC000C4
:100870000000000000003F3CFF00000000000000FE
:10088000007E7CF800000000000000007FFE7C007D
:1008900000000000000000FFFFFC0000000000005E
:1008A0000000FFFFFE0000000000000000FFFFFE50
:1008B0000000000000000001FFEFFE00000000004B
:1008C000000001FFCFFE0000000000000003FF0752
:1008D000FE0000000000000003FC07FE0000000016
:1008E00000000003F003FE00000000000000018093
:1008F00000FE000000000000000000007E0000007C
:10090000000000000000003E0000000000000000A9
:1009100000000C000000000000078000FC00000345
:10092000C0000000078001FC000003C000000007B9
:100930008001FC000003C0000000078001E000000F
:10094000001E000000078001E00000001E007FE3A1
:10095000F79FF9FDE7787BDFC0FFF7FFBFFDFDFFE5
:10096000787BDFC0FFF7FFBFFDFDFF787BDFC0F0C6
:10097000F787BC3DE1FF787BDE00F0F787BC3DE107
:10098000F0787BDE0000F787803DE1E0787BDE00D9
:100990007FF7879FFDE1E0787BDE00FFF787BFFDF3
:1009A000E1E0787BDE00F0F787BC3DE1E0787BDEBC
:1009B00000F0F787BC3DE1E0787BDE00F0F787BC14
:1009C0003DE1E0787BDE00FFF7FFBFFDE1E07FFB6C
:1009D000DFC0FFF7FFBFFDE1E07FFBDFC07CF3F38B
:1009E0009F3DE1E03E7BCFC0000000000000000022
:1009F000000000FFFFFFFFFFFFFFFFFFFFC0FFFF43
:100A0000FFFFFD68DB111A31C0FFFFFFFFFD2B5A0E
:100A1000FB6AEFC0FFFFFFFFFD4B5B3B1A33C0FFDC
:100A2000FFFFFFFD6B5BDB6AFDC0000000002300E1
:100A3000260029000000000800020100000304074E
:100A40000000000000000000000000000025002859
:100A5000002B0000000000240027002A00040404EA
:100A60000404040404020202020202030303030357
:100A70000302010204081020408001020408102033
:100A8000010204081020802200FF2100211C1F27E2
:100A900011241FBECFEFD8E0DEBFCDBF11E0A0E034
:100AA000B1E0E0EDF3E502C005900D92A63AB10782
:100AB000D9F722E0A6EAB1E001C01D92AD3CB20731
:100AC000E1F715E0C7E4D5E004C02197FE010E94DC
:100AD000A428C634D107C9F70E94C11C0C94DB2995
:100AE0000C94000090E0FC01EE58F54F2491835ADD
:100AF000954FFC018491882399F090E0880F991F0D
:100B0000FC01ED5AF54FA591B491FC01E75BF54F5F
:100B1000859194918FB7F894EC91E22BEC938FBF71
:100B200008950895833081F028F4813099F082305F
:100B3000A9F008958730A9F08830C9F08430B1F465
:100B4000809180008F7D03C0809180008F7780939B
:100B50008000089584B58F7784BD089584B58F7D16
:100B6000FBCF8091B0008F778093B0000895809183
:100B7000B0008F7DF9CFCF93DF93E2E4FAE0849168
:100B8000E0E8FAE0D491EBE6FAE0C491CC23A1F0DE
:100B900081110E949205EC2FF0E0EE0FFF1FE65D41
:100BA000F54FA591B491EC91ED2381E090E009F42B
:100BB00080E0DF91CF91089580E090E0FACF1F931D
:100BC000CF93DF93282F30E0F901EC5CF54F84914F
:100BD000F901EE58F54FD491F901E35AF54FC4915C
:100BE000CC23A9F0162F81110E949205EC2FF0E082
:100BF000EE0FFF1FE75BF54FA591B4918FB7F89407
:100C0000EC91111108C0D095DE23DC938FBFDF91EA
:100C1000CF911F910895DE2BF8CF3FB7F8948091C4
:100C20003F0290914002A0914102B091420226B54C
:100C3000A89B05C02F3F19F00196A11DB11D3FBF14
:100C4000BA2FA92F982F8827BC01CD01620F711DE3
:100C5000811D911D42E0660F771F881F991F4A95DD
:100C6000D1F708958F929F92AF92BF92CF92DF9269
:100C7000EF92FF924B015C010E940D066B017C011B
:100C80000E940D066C197D098E099F09683E73400C
:100C900081059105A8F321E0821A9108A108B10805
:100CA00088EEC80E83E0D81EE11CF11C811491046B
:100CB000A104B10429F7FF90EF90DF90CF90BF908F
:100CC000AF909F908F900895AF92BF92CF92DF9296
:100CD000EF92FF920F931F93CF93DF936C017B01F1
:100CE0008B01040F151FEB015E01AE18BF08C01782
:100CF000D10759F06991D601ED91FC910190F081F5
:100D0000E02DC6010995892B79F7C501DF91CF91B7
:100D10001F910F91FF90EF90DF90CF90BF90AF9019
:100D20000895EF92FF920F931F93CF93DF93EC01FF
:100D3000EC80FD806E157F050CF070C057FF04C07D
:100D4000240F351F50E040E08E819F81FA01E20FB1
:100D5000F31F8E179F071CF49C01241B350B1216E2
:100D600013060CF05BC0922F842F8695869586958E
:100D70008E9DD0018F9DB00D11246A0F7B1FAF8D0A
:100D8000B8A1A60FB71F477049F188E0841B482F10
:100D9000682F70E0FB01E059FA4FE491281708F042
:100DA00063C0621B71092FEF30E002C035952795B3
:100DB0006A95E2F7E2230130110539F0B0F1023013
:100DC000110561F58C91E82702C08C91E82BEC931A
:100DD000941720F12C813D81A20FB31FE92FE41B52
:100DE000E83078F00230110521F58E2F9C91909516
:100DF0009C932C813D81A20FB31F88508830B0F79F
:100E0000E770EE2359F0F0E0E859FA4FE491013031
:100E10001105F9F010F10230110519F1DF91CF91B0
:100E20001F910F91FF90EF900895E0958C91E8232A
:100E3000CECF81E00115110509F480E081959E2F48
:100E40008C932C813D81A20FB31F98509830C0F72E
:100E5000D7CF8C91E82BEC93E1CFE0958C91E823F0
:100E6000FACF8C91E827F7CF0130110509F4ADCF07
:100E7000E0F20230110509F4A5CFAE0DBF1DAECFD3
:100E80000F931F93CF93DF9377FF04C0260F371F75
:100E900070E060E0DC011496CD91DC91FB01E20F83
:100EA000F31FCE17DF071CF49E01261B370B12160B
:100EB00013064CF5FA0157FD3796A3E0F595E79533
:100EC000AA95E1F7EC9FD001ED9FB00DFC9FB00D0E
:100ED00011246A0F7B1FDC015F96ED91FC91E60FF8
:100EE000F71F4770552781E090E001C0880F4A95B1
:100EF000EAF7482F0130110559F0A8F02E0F3F1FD7
:100F000002301105E1F0DF91CF911F910F9108950B
:100F10002E0F3F1FE217F307B1F38191DF01119705
:100F2000842B8C93F7CF80952E0F3F1FE217F3078A
:100F300051F39191DF01119798239C93F7CFE2171A
:100F4000F30709F38191DF01119784278C93F7CF81
:100F50000F931F93FA01DC0156964C91569742303D
:100F6000E9F04330A1F1413061F514964D915C9167
:100F7000DA01AE1BBF0BFD01E21BF30B77FD0BC0CB
:100F8000DC0116964D915C916417750724F4AB0152
:100F9000BF010E9440071F910F91089514964D9133
:100FA0005C91DA01A61BB70BBD0161507109DC0130
:100FB00016964D915C91DA01AE1BBF0BFD01E21B51
:100FC000F30B77FDE8CFAF010E949106E4CF1696B0
:100FD0004D915C91DA01A61BB70BBD0161507109FF
:100FE000CDCF0F931F93FA01DC0156964C91569783
:100FF0004230A9F0433091F1413019F514964D91EA
:101000005C91DA01AE1BBF0BFD013197F7FD04C007
:10101000AB01BF010E9491061F910F910895149694
:101020004D915C91DA01A61BB70BBD01DC01169650
:101030004D915C91DA01AE1BBF0BFD013197621B34
:10104000730BF7FDE9CFDC0116964D915C91E41727
:10105000F50714F7AF010E944007DECF16964D91B9
:101060005C91DA01A61BB70BBD01621B730BCECFDF
:10107000FC0177FD64C080859185681779070CF0C5
:101080005EC057FD5CC082859385481759070CF0F8
:1010900056C086898230B1F0833029F1813041F425
:1010A00084819581841B950BAB01BC016150710952
:1010B0002130310509F108F443C02230310509F42B
:1010C00063C0089584819581DC01A61BB70BBD0127
:1010D0006150710986819781DC01A41BB50BAD01BC
:1010E00041505109E5CF86819781861B970BBA0144
:1010F000AC0141505109DCCFCA0157FD0796A3E06E
:1011000095958795AA95E1F7A481B5818A9F90016D
:101110008B9F300D9A9F300D1124620F731F078C27
:10112000F0A1E02DE60FF71F4770552721E030E0D2
:1011300001C0220F4A95EAF78081822B80830895AF
:10114000CA0157FD079633E0959587953A95E1F7E3
:10115000A481B5818A9F90018B9F300D9A9F300D9D
:101160001124620F731F078CF0A1E02DE60FF71F0B
:101170004770552781E090E001C0880F4A95EAF753
:10118000809590818923DACFCA0157FD079623E025
:10119000959587952A95E1F7A481B5818A9F90015D
:1011A0008B9F300D9A9F300D1124620F731F078C97
:1011B000F0A1E02DE60FF71F4770552721E030E042
:1011C00001C0220F4A95EAF780818227B7CF0895A0
:1011D0008EBD00000DB407FEFDCF8EB508958CBD09
:1011E0009DBD08950895FC016370668B848195818F
:1011F00026813781613039F0633029F0918780870B
:1012000033872287089531872087938782870895BF
:101210002F923F924F925F926F927F928F929F9206
:10122000AF92BF92CF92DF92EF92FF920F931F93F4
:10123000CF93DF93CDB7DEB76A970FB6F894DEBFD2
:101240000FBECDBF9A8F898F7A8369834A01D22ED0
:1012500018870F833701BC2CDC0159962D913C91E6
:101260005A972115310509F015C118968D919C9159
:101270001997681779070CF0D7C11A968D919C9130
:10128000481759070CF0D0C14C2C512CB6E0CB9E1E
:10129000600D711D11247C876B87161617060CF0E4
:1012A000C3C1EA2DF0E0FA87E98793E0EE0FFF1F54
:1012B0009A95E1F7F88BEF87CF01840F951F1816E9
:1012C00019060CF0B1C1A98DBA8D58968C91811177
:1012D00004C0BFEABD1508F4D394A98DBA8DED9171
:1012E000FC9111970284F385E02DCD010995B5E0BD
:1012F000DB9EC0011124E981FA81FC83EB83312C50
:10130000212C9C0128593F4F388F2F8B4A2D50E0BC
:101310005E8B4D8BEF89F88DE20DF31D44919E821B
:101320008D82D12CC12C69817A81620D731D7A8BDB
:10133000698B842F90E09C8B8B8BE98DFA8DA0813B
:10134000B18140FF82C0F1E0BF126FC0AF126DC02B
:101350001C96ED91FC912F813885A4014C0D5D1DEB
:1013600069897A89898D9A8D0995EB89FC89F5952A
:10137000E7954E2F5FEFC51AD50A6D817E818D8965
:101380009E89680F791F7E836D8398E0C916D1040A
:1013900081F6AFEF2A1A3A0AEB81FC81E40DF51DC4
:1013A000FC83EB83F5E02F16310409F0B3CF2F81D6
:1013B000388526153705B9F0A98DBA8DED91FC91C8
:1013C000B1E0BB1257C0AB1255C069817A816B5F27
:1013D0007F4F0088F189E02D830128E030E0A401EF
:1013E000898D9A8D0995A98DBA8DED91FC911197F2
:1013F0000688F789E02DCD016A960FB6F894DEBF16
:101400000FBECDBFDF91CF911F910F91FF90EF9055
:10141000DF90CF90BF90AF909F908F907F906F9014
:101420005F904F903F902F9009941E96ED91FC9104
:10143000EF80F88409851A8592014D815E816B8168
:101440007C81898D9A8D099590CF2F8138852615BD
:10145000370509F48ACF31E0B31207C0A31205C0E3
:101460001C96ED91FC91930178CF1E96ED91FC9125
:101470007301E0CF6B857C85641975090684F78557
:10148000E02D73010F8518899201A401898D9A8D31
:101490000995A9CFF90134969491329745915491C9
:1014A000D91AB7E0DB9E400D511D1124F901259199
:1014B00034913C8B2B8BFA0125903490FA013296B3
:1014C000749031963491398B329664903196449071
:1014D00041E04C1518F04A1508F07FC0662D062C27
:1014E000000C770B7C836B83842D042C000C990BF0
:1014F0009E838D83A98DBA8DED91FC911197028405
:10150000F385E02DCD010995512CD12CC12CEA2D6C
:10151000F0E0FA87E9872B2D30E03C872B87A40188
:10152000440D511D47FC5A95588F4F8B69817A8124
:10153000660D711D67FC7A957E876D877989C71660
:1015400008F051CF2C2D30E04D815E81420F531FAA
:10155000A985BA854A9FC0014B9F900D5A9F900D57
:101560001124FC01E80DF91DF88BEF87852D612C06
:101570004F89588D420F531F5E8B4D8B671408F0B7
:1015800050C044244394480E877041F4C101019631
:10159000EB89FC89E20DF31DD4901C01D7FE19C024
:1015A000A98DBA8DED91FC91662D70E0B1E0BB1272
:1015B00019C0AB1217C02D853E85620F731F0484BE
:1015C000F585E02D2F8138854D895E89898D9A8D2D
:1015D0000995DD0C6394842DD1CF1E821D821C825F
:1015E0001B8288CF4B815C81640F751FAB85BC85E6
:1015F0006A9FC0016B9F900D7A9F900D11246981A5
:101600007A81680F791F0684F785E02DEF80F884D2
:1016100009851A859D014F855889898D9A8D09956F
:10162000D8CF570CC3948ACF6A960FB6F894DEBF12
:101630000FBECDBFDF91CF911F910F91FF90EF9023
:10164000DF90CF90BF90AF909F908F907F906F90E2
:101650005F904F903F902F9008958F929F92AF92FE
:10166000CF92EF92FF920F931F93CF93DF93EC01F2
:10167000262F898D9A8D009709F051C06A30D1F4D8
:101680001D861C868D8948E0849F900111248E85DB
:101690009F85820F931F9F878E8781E090E0DF9167
:1016A000CF911F910F91FF90EF90CF90AF909F90AF
:1016B0008F9008956D3089F3CC88AD888F89882309
:1016C000C1F08C859D8536E0C39E800D911D11244F
:1016D000488559854817590764F44E855F851D86EE
:1016E0001C8638E0A39EC0011124840F951F9F879C
:1016F0008E87EA88FB88088919894E855F856C8505
:101700007D85CE010E9408092C898C859D8546E047
:10171000249F800D911D11249D878C87BECF6A3038
:1017200069F41D861C86FC013896E4912D898E850E
:101730009F85E29F800D911D1124ADCF6D3009F47E
:10174000ACCFFC0134963491631708F4A6CF3296DF
:10175000E491E61708F4A1CFFC01329685909490AD
:10176000462F431B342F47E0349F800C911C1124DB
:10177000F401329634913196E4913323A9F1EE23AA
:1017800099F1CC88F4013596E491AD884F894423D2
:1017900001F10E2E000CFF0BE30FF11DCE9EA001F8
:1017A000CF9E500D11246C857D85460F571F68858F
:1017B0007985641775076CF44E855F851D861C86D8
:1017C000FC013896E491AE9E400D511D11245F87B7
:1017D0004E87EA88FB88088919894E855F856C8564
:1017E0007D85CE010E940809F4013496E4912C898C
:1017F0008C859D85E29F800D911D11248DCF6F9268
:101800007F928F929F92AF92BF92CF92DF92EF9290
:10181000FF920F931F93CF93DF93EC016B015A015B
:1018200039014801E881F9810284F385E02D0995A9
:10183000E881F9810288F389E02D87019301A501F0
:10184000B601CE010995A501480D591D4150510918
:10185000E881F9810288F389E02D9301B601CE0178
:101860000995E881F9810088F189E02D9401A501AD
:10187000B601CE010995C60CD71CB601615071099D
:10188000E881F9810088F189E02D9401A501CE015C
:101890000995E881F9810688F789E02DCE01DF916D
:1018A000CF911F910F91FF90EF90DF90CF90BF905D
:1018B000AF909F908F907F906F9009946F927F92DE
:1018C0008F929F92AF92BF92CF92DF92EF92FF9250
:1018D0000F931F93CF93DF935C01EB016A014901E2
:1018E00038018701DC01ED91FC916217730719F54E
:1018F000641675062CF0962D872D3A01C92ED82E28
:101900009601261937092F5F3F4F048CF58DE02D86
:10191000A301BE01C5010995DF91CF911F910F91E0
:10192000FF90EF90DF90CF90BF90AF909F908F90FF
:101930007F906F9008954615570591F42617370745
:1019400024F0892D4B01C22FD82F9E012819390967
:101950002F5F3F4F068CF78DE02DA601B401DACF43
:101960000284F385E02D0995D501ED91FC91048861
:10197000F589E02D83019401A601BE01C5010995F9
:10198000D501ED91FC910688F789E02DC501DF9125
:10199000CF911F910F91FF90EF90DF90CF90BF906C
:1019A000AF909F908F907F906F9009942F923F926D
:1019B0004F925F926F927F928F929F92AF92BF925F
:1019C000CF92DF92EF92FF920F931F93CF93DF930B
:1019D000EC015B014A0139011801270176018901F7
:1019E0009A01AB01BC0189E892E00E945E0C820181
:1019F0009101A301B40189E892E00E945E0C850187
:101A00009E01A201B10189E892E00E945E0CDF9183
:101A1000CF911F910F91FF90EF90DF90CF90BF90EB
:101A2000AF909F908F907F906F905F904F903F907E
:101A30002F900895EF92FF920F931F93DC011A9657
:101A40000D911C911B9718962D913C911997ED9132
:101A5000FC9100A0F1A1E02D7B0150E040E070E09E
:101A600060E009951F910F91FF90EF9008954F92BC
:101A70005F926F927F928F929F92AF92BF92CF921E
:101A8000DF92EF92FF920F931F93CF93DF936C013E
:101A90002B015A0139014801DC01ED91FC910284CE
:101AA000F385E02D0995E201640C751CD601ED91DA
:101AB000FC91C615D7055CF40088F189E02D8701FB
:101AC0009401A501BE01C60109952196EFCF0688B4
:101AD000F789E02DC601DF91CF911F910F91FF9003
:101AE000EF90DF90CF90BF90AF909F908F907F90BE
:101AF0006F905F904F9009948F929F92AF92BF9298
:101B0000CF92DF92EF92FF920F931F93CF93DF93C9
:101B1000EC015B014A016901E881F9810284F385E6
:101B2000E02D099595012C0D3D1D21503109E881CD
:101B3000F9810488F589E02D78018401A401B501BB
:101B4000CE010995E881F9810688F789E02DCE015B
:101B5000DF91CF911F910F91FF90EF90DF90CF9089
:101B6000BF90AF909F908F9009948F929F92AF9269
:101B7000BF92CF92DF92EF92FF920F931F93CF937A
:101B8000DF93EC015B014A0169017801E881F98189
:101B90000284F385E02D0995C80CD91C86010150FB
:101BA0001109E881F9810488F589E02D9501A401E6
:101BB000B501CE010995E881F9810688F789E02D04
:101BC000CE01DF91CF911F910F91FF90EF90DF90A9
:101BD000CF90BF90AF909F908F900994EF92FF921B
:101BE0000F931F93DC01ED91FC9100A0F1A1E02D7A
:101BF00009951F910F91FF90EF9008950F931F93F8
:101C0000DC01ED91FC91068CF78DE02D09951F917B
:101C10000F9108952F923F924F925F926F927F9211
:101C20008F929F92AF92BF92CF92DF92EF92FF92EC
:101C30000F931F93CF93DF93CDB7DEB7A8970FB65F
:101C4000F894DEBF0FBECDBF7C0178A76FA36A01F9
:101C50003E872D87681779070CF08CC14817590704
:101C60000CF4A2C1982F8F2D7B0158A74FA3C92E2A
:101C7000D82E20E830E03A83298388E790E04FA10E
:101C800058A5E416F50671F569817A8186179707DC
:101C900014F49A83898321E830E089819A81281B92
:101CA000390B0D851E85A701BC0189E892E00E94D1
:101CB000FE0DA8960FB6F894DEBF0FBECDBFDF9124
:101CC000CF911F910F91FF90EF90DF90CF90BF9039
:101CD000AF909F908F907F906F905F904F903F90CC
:101CE0002F9008953C2D2D2D6701EFA0F8A43FA360
:101CF00028A7A0E8B0E0BC83AB8310C09C2D8D2D3D
:101D0000CFA0D8A49FA388A780E890E0E8E7F0E000
:101D1000FA83E98320E830E03C832B8329813A81F0
:101D2000AB81BC812A1B3B0B4FA158A54C195D0907
:101D3000FC01EA1BFB0BFC8BEB8BB7016C197D09DB
:101D40007E836D83DC01E981FA81AE1BBF0BBE8B04
:101D5000AD8BB7018FA198A5681B790B788B6F8726
:101D60008E159F0509F485C001979A87898716010A
:101D7000412C512C3201812C912C54016B897C898E
:101D8000072E000C880B990B6F8B788F898F9A8F99
:101D9000CA01550FAA0BBB0B8B8F9C8FAD8FBE8FCB
:101DA0004D815E81052E000C660B770B4F8F58A37B
:101DB00069A37AA3B901330F880B990B6BA37CA39A
:101DC0008DA39EA389859A85821593050CF456C030
:101DD000C501B4012B8D3C8D4D8D5E8D0E940A286E
:101DE0000B811C81020F131FC301B2012F8D38A17B
:101DF00049A15AA10E940A286B817C81620F731F3E
:101E00002BA13CA14DA15EA1820E931EA41EB51E66
:101E10008F89988DA98DBA8D480E591E6A1E7B1E1A
:101E2000601771072CF0962F872FB801092F182FF4
:101E3000061B170B98012F5F3F4F0D851E85A101D3
:101E400089E892E00E94FE0D9FEF291A390ABACF65
:101E50009E2D8F2DEFA0F8A49FA388A780E890E087
:101E600040E850E05A83498368E770E07C836B83E5
:101E700055CFAFA1B8A5BA87A98779CF2D893E895B
:101E8000032E000C440B550B29873A874B875C8740
:101E900091014FA158A5241B350BAD89BE890E9425
:101EA00081284B015C0191012C193D09AB89BC894A
:101EB0000E9481282B013C016F857889072E000C38
:101EC000880B990B6F87788B898B9A8B8D819E817C
:101ED000092E000CAA0BBB0B8D839E83AF83B887A2
:101EE000E214F3040CF4E5CEC501B4012F85388962
:101EF00049895A890E940A28A981BA81A20FB31F71
:101F0000BC8BAB8BC301B2012D813E814F815885C3
:101F10000E940A286B817C81620F731F29853A8594
:101F20004B855C85820E931EA41EB51E8F89988DED
:101F3000A98DBA8D480E591E6A1E7B1EAB89BC89BD
:101F40006A177B072CF0962F872FBD019B8B8C8BFC
:101F5000EB89FC89E61BF70B9F012F5F3F4F0D8537
:101F60001E85A10189E892E00E94FE0DFFEF2F1A65
:101F70003F0AB6CF2FA138A54217530724F188E7AF
:101F800090E0E416F50609F484CE8D2D6701E42E69
:101F9000F82E88E790E020E830E03A83298340E893
:101FA00050E05C834B83BACE4FA158A5C416D5062A
:101FB0000CF0A4CE80E890E060E870E07A8369835A
:101FC000A8E7B0E098CE481759070CF441CFE8E7EE
:101FD000F0E0FA83E98380E890E051CE0F931F93FD
:101FE000DC01ED91FC91048CF58DE02D09951F919C
:101FF0000F9108952F923F924F925F926F927F922E
:102000008F929F92AF92BF92CF92DF92EF92FF9208
:102010000F931F93CF93DF93CDB7DEB728970FB6FB
:10202000F894DEBF0FBECDBF3C017E836D836A0195
:10203000AB0144505109860129E030E0BC0189E838
:1020400092E00E94EE0F24E0222E312C21E030E0BD
:102050003A832983F12CE12C84E090E098878F83E8
:1020600028EF3FEF3C832B833DEF432E55245A94BA
:102070003FEFE31AF30A89819A8102969A83898352
:10208000480E591E2F8138852E153F050CF45DC072
:102090004901880C991C3FEF831A930A8601940129
:1020A000AD80BE808F819885A81AB90AA501B701B5
:1020B000660D771D89E892E00E94EE0F9401A5015C
:1020C000B3016E197F0989E892E00E94EE0F2F811B
:1020D00038852216330609F1AA24A394B12CAE1830
:1020E000BF088D819E81A80EB91EB301620D731DBC
:1020F000860189809A8092E0891A91089401A5014D
:1021000089E892E00E94EE0FB3016219730994010D
:10211000A50189E892E00E94EE0F8F819885E8166C
:10212000F906C4F457FC0EC001972B813C812E5F49
:102130003F4F3C832B83420E531E2F803884988759
:102140008F8396CF8F819885F8CF2F81388522167F
:10215000330611F628960FB6F894DEBF0FBECDBF3A
:10216000DF91CF911F910F91FF90EF90DF90CF9073
:10217000BF90AF909F908F907F906F905F904F90A7
:102180003F902F900895DC01ED91FC910084F18542
:10219000E02D09943F924F925F926F927F928F92BF
:1021A0009F92AF92BF92CF92DF92EF92FF920F93E6
:1021B0001F93CF93DF935C017B014A0169013901D1
:1021C00087E0680E711C93E0759467949A95E1F727
:1021D0002B01400E511E10E000E0312CD0E0C0E099
:1021E000CE0187709927330C892B59F4FE0183E0C7
:1021F000F595E7958A95E1F7E00FF11FE80DF91DD8
:10220000349037FE0AC021E030E0A701B5016C0F21
:102210007D1F89E892E00E94C3102196CC16DD064E
:10222000F9F68FEFE81AF80A060D171DE414F50405
:10223000A9F6DF91CF911F910F91FF90EF90DF9062
:10224000CF90BF90AF909F908F907F906F905F9056
:102250004F903F9008952F923F924F925F926F92CE
:102260007F928F929F92AF92BF92CF92DF92EF9226
:10227000FF920F931F93CF93DF9300D000D000D035
:10228000CDB7DEB77C018B015E834D83AB014C5F24
:102290005F4F2D813E81BC0189E892E00E94C3100E
:1022A000A801445051092D813E81B70189E892E08F
:1022B0000E94C310B7016C5F7F4F2D813E81A80142
:1022C00089E892E00E94C310B701645071092D8122
:1022D0003E81A80189E892E00E94C31081E090E06D
:1022E0009A838983B12CA12C84E0C82ED12C88EF4D
:1022F0009FEF9C838B839DEF692E77247A949FEFC9
:10230000A91AB90A89819A8102969A838983680EEB
:10231000791E25014E0C5F1C2D813E8148018C0CDD
:102320009D1CA401B20189E892E00E94C31017012C
:102330002A183B082D813E81A401B10189E892E071
:102340000E94C3102D813E8148018C189D08A40174
:10235000B20189E892E00E94C3102D813E81A40160
:10236000B10189E892E00E94C31048018A0C9B1CCD
:102370002D813E81A40127014C0C5D1CB20189E82E
:1023800092E00E94C3102D813E81A40117012C18F8
:102390003D08B10189E892E00E94C31048018A1803
:1023A0009B082D813E81A401B20189E892E00E9440
:1023B000C3102D813E81A401B10189E892E00E9401
:1023C000C310AC14BD04CCF026960FB6F894DEBF53
:1023D0000FBECDBFDF91CF911F910F91FF90EF9076
:1023E000DF90CF90BF90AF909F908F907F906F9035
:1023F0005F904F903F902F90089577FC80CF91E0B1
:10240000C91AD1088B819C8102969C838B83680EAC
:10241000791E75CF2F923F924F925F926F927F926B
:102420008F929F92AF92BF92CF92DF92EF92FF92E4
:102430000F931F93CF93DF9300D000D0CDB7DEB7BB
:102440006C015B015C834B8381E090E04C01841A5A
:10245000950A2A01519441945108440C551CF12CC1
:10246000E12C66246394712C422F44704983522FCF
:1024700052705A83822F8870282E2170322E4B8101
:102480005C81E416F5060CF083C097FC09C041504E
:1024900051095C834B8352E0450E511C840C951C02
:1024A0008FEFE81AF80A92E0690E711C860C971CEF
:1024B00049814423C1F098014B815C814A0D5B1D29
:1024C000B6016E0D7F1D89E892E00E94C31098014D
:1024D000A5014E0D5F1D6B817C816C0D7D1D89E812
:1024E00092E00E94C3105A815523C9F09801A501BA
:1024F0008B819C81481B590BB6016E0D7F1D89E8AD
:1025000092E00E94C3109801A5014E195F096B81EA
:102510007C816C0D7D1D89E892E00E94C310222011
:10252000C9F09801A5014E0D5F1DB6018B819C81FC
:10253000681B790B89E892E00E94C31098014B81D7
:102540005C814A0D5B1DB6016E197F0989E892E036
:102550000E94C310332009F492CF9801A5014E19AF
:102560005F09B6018B819C81681B790B89E892E039
:102570000E94C3109801A5018B819C81481B590BB7
:10258000B6016E197F0989E892E00E94C31077CFE7
:102590000F900F900F900F90DF91CF911F910F919F
:1025A000FF90EF90DF90CF90BF90AF909F908F9073
:1025B0007F906F905F904F903F902F9008958F92F3
:1025C0009F92AF92BF92CF92DF92EF92FF920F93C2
:1025D0001F93CF93DF936C017B015C0182E0A80E17
:1025E000B11C8A0130E020E0AB01B50189E892E03E
:1025F0000E94FE0DA7014D5F5F4F30E020E0B50166
:1026000089E892E00E94FE0D470182E0880E911C4D
:1026100030E020E0A401B60189E892E00E94EE0FCC
:10262000B6016D5F7F4F30E020E0A40189E892E0C1
:102630000E94EE0F21E042E050E0B401C5010E948B
:102640000A128FEFC81AD80A22E042E050E0B40123
:10265000C6010E940A128FEFE81AF80A24E042E04D
:1026600050E0B701C6010E940A1228E042E050E0A3
:10267000B701C5010E940A12DF91CF911F910F91FE
:10268000FF90EF90DF90CF90BF90AF909F908F9092
:1026900008952F923F924F925F926F927F928F9206
:1026A0009F92AF92BF92CF92DF92EF92FF920F93E1
:1026B0001F93CF93DF9300D000D000D0CDB7DEB70B
:1026C0003C016A013E832D83FC82EB825801A41AEF
:1026D000B50AB7FE03C0B194A194B1088D809E8065
:1026E000861A970A97FE03C09194819491088A14E0
:1026F0009B045CF0902F812F0D811E819D838E8322
:102700009C2D8D2D6B01692F782F0C151D055CF00C
:102710009D818E817E836D83692F782F902F812FED
:102720008601C92ED82E1601201A310A2B012D81BF
:102730003E81421A530A57FE03C0519441945108F6
:10274000710137FE03C03FEFE31AF30AF594E794F3
:102750008D819E81861797075CF5A1E0B0E0BA8372
:10276000A983C016D1064CF1D301ED91FC910484EC
:10277000F585E02D2B813C81A8016D817E818A1435
:102780009B041CF04D815E81B801C3010995E418DA
:10279000F508F7FE0AC02D813E8189819A81280FB4
:1027A000391F3E832D83E20CF31C0F5F1F4FD9CFDF
:1027B0002FEF3FEF3A832983D4CF26960FB6F894B4
:1027C000DEBF0FBECDBFDF91CF911F910F91FF9064
:1027D000EF90DF90CF90BF90AF909F908F907F90C1
:1027E0006F905F904F903F902F900895089585EDE2
:1027F0008093BC008091BC0084FDFCCF10922F021E
:102800000895613298F420912F02243089F4609366
:10281000E601282FA6ECB1E0FC018E2F821B861763
:1028200010F080E0089581918D93F7CF81E00895B5
:1028300082E0089581E090E03091310220913002F1
:10284000321710F490E080E09195819591090895F8
:102850008091310290913002891730F48F5F80931C
:10286000310290E080E008958FEF9FEF089580910E
:10287000300290913102891B990B0895CF92DF921B
:10288000EF92FF920F931F93CF93DF937C01CB01C5
:102890008A0120914602222389F0EB016B01C40ECC
:1028A000D51ECC15DD0569F06991D701ED91FC913C
:1028B0000190F081E02DC7010995F3CF642F0E94AC
:1028C0000114C801DF91CF911F910F91FF90EF90FC
:1028D000DF90CF900895CF93DF931F92CDB7DEB7EF
:1028E0006983209146022223F9F02091430220328D
:1028F00058F021E030E0FC013383228390E080E057
:102900000F90DF91CF91089580914402E82FF0E07D
:10291000EA55FE4F998190838F5F809344028093A4
:10292000430281E090E0ECCF61E0CE0101960E948D
:102930000114F7CF2091430281E0213208F040C01A
:1029400080912F028111FCCF8091450292E09093FB
:102950002F0291E090932E029FEF90930902109224
:102960002B0220932A02A6EAB1E0EAE0F2E090E02E
:1029700029132DC010922C0290912C02880F892BC4
:1029800080932C0280912D02813029F510922D0226
:1029900080912C028093BB0085EC8093BC008091D9
:1029A0002F028230E1F3809109028F3FB1F08091D4
:1029B00009028032A1F080910902803391F084E015
:1029C00010924402109243021092460208953D91E3
:1029D00031939F5FCDCF85EEE0CF80E0F1CF82E0F5
:1029E000EFCF83E0EDCFEF92FF920F931F93CF9342
:1029F000DF937C01C62F8091A6029091A7020097D9
:102A000009F459C02091AA0231E030934602209384
:102A100045021092440210924302DC01ED91FC91B8
:102A20000190F081E02D60E009958701EE24E394A8
:102A3000F12CD1E0C1508091A6029091A702CF3F26
:102A400091F1B0E2EB16F104D8F00E949A14809153
:102A5000A6029091A7022091AA02D0934602209349
:102A600045021092440210924302DC01ED91FC9168
:102A70000190F081E02D60E00995EE24E394F12CC3
:102A80008091A6029091A702F8016491DC01ED917A
:102A9000FC910190F081E02D0995BFEFEB1AFB0A44
:102AA0000F5F1F4FC7CFDF91CF911F910F91FF9005
:102AB000EF900C949A14E091B602F091B7029081D5
:102AC0008091BC028095892380838701C15008F4DE
:102AD00038C0F80184912091A4023091A502232BE3
:102AE00029F00E94E8080F5F1F4FF0CF28E030E088
:102AF00040E8E091B202F091B3029091BA02582FEF
:102B00005423D9F05081952B9083E091B402F09139
:102B1000B50290815091BB02952B9083E091B40255
:102B2000F091B50250819091BB02909595239083CE
:102B3000469521503109E9F6D6CF508190959523DD
:102B4000E3CFDF91CF911F910F91FF90EF90089508
:102B50001F93CF93DF93EC018D8D9E8D009721F114
:102B6000162F29A131E0309346022093450210929E
:102B7000440210924302DC01ED91FC910190F0813E
:102B8000E02D60E009958D8D9E8DDC01ED91FC912D
:102B90000190F081E02D612F09958D8D9E8DDF9143
:102BA000CF911F910C949A14ADA5BEA59C918BA9B1
:102BB000809589238C938B8D9C8D892B31F0862F6A
:102BC000DF91CF911F910C94E80828E030E080E875
:102BD000A9A5BAA599A9462F4823C1F04C91942BD9
:102BE0009C93ABA5BCA59C914AA9942B9C93ABA5A7
:102BF000BCA54C919AA9909594239C9386952150BD
:102C0000310931F7DF91CF911F9108954C91909543
:102C10009423E6CFDF92EF92FF920F931F93CF930F
:102C2000DF938091A6029091A702892B09F498C0A6
:102C30002091BE023091BF024091C0025091C1026A
:102C400060E074E284EF90E00E943C28205131095A
:102C50004109510956954795379527952093B80016
:102C600065E087E89AE00E94F31460918D0261505C
:102C700089E892E00E94A81520918F02309190027D
:102C8000C901079697FD079633E0959587953A9584
:102C9000E1F720918D0230918E02829F8001839F07
:102CA000100D929F100D1124C091A802D091A9027D
:102CB0008091A6029091A7020C0F1D1F009709F4A6
:102CC0008FC02091AA0231E0309346022093450242
:102CD0001092440210924302DC01ED91FC910190AC
:102CE000F081E02D60E40995EE24E394F12CDD24DD
:102CF000D3948091A6029091A7020C171D0709F4A6
:102D000046C0B0E2EB16F104D8F00E949A1480910C
:102D1000A6029091A7022091AA02D0924602209387
:102D200045021092440210924302DC01ED91FC91A5
:102D30000190F081E02D60E40995EE24E394F12CFC
:102D40008091A6029091A7026991DC01ED91FC911E
:102D50000190F081E02D0995BFEFEB1AFB0AC9CF76
:102D60008091A4029091A502892B31F08091C70235
:102D70009091C8020E94EF08E091B802F091B90268
:102D800090818091BD0280958923808369CF0E94C4
:102D90009A148091A6029091A702892B09F461C030
:102DA0002091C2023091C3024091C4025091C502E9
:102DB00060E074E284EF90E00E943C2820513109E9
:102DC0004109510956954795379527952093B800A5
:102DD000DF91CF911F910F91FF90EF90DF900895B9
:102DE000E091B602F091B70280819091BC02892BEC
:102DF00080830C171D0769F289912091A4023091FC
:102E0000A502232B19F00E94E808F3CF28E030E058
:102E100040E8E091B202F091B3029091BA02582FCB
:102E20005423D9F05081952B9083E091B402F09116
:102E3000B50290815091BB02952B9083E091B40232
:102E4000F091B50250819091BB02909595239083AB
:102E5000469521503109E9F6CCCF508190959523C4
:102E6000E3CFE091B802F091B90280819091BD0268
:102E7000892B8083ADCF1F93CF93DF93EC01162F67
:102E80008D8D9E8D892BB1F12DA93EA94FA958ADED
:102E900060E074E284EF90E00E943C282051310908
:102EA0004109510956954795379527952093B800C4
:102EB00066EA111167EACE010E94A8158D8D9E8DDC
:102EC000892B41F129AD3AAD4BAD5CAD60E074E2C8
:102ED00084EF90E00E943C282051310941095109BA
:102EE00056954795379527952093B800DF91CF9158
:102EF0001F9108958B8D9C8D892B21F08EAD9FADF8
:102F00000E94EF08EFA5F8A990818CA980958923EC
:102F10008083CECFEFA5F8A980819CA9892B8083DF
:102F2000E5CF90E080E00895DC0112966D917C91F0
:102F3000139761507109ED91FC910680F781E02DA6
:102F40000994DC01ED91FC910680F781E02D70E0A1
:102F500060E009940F931F93CF93DF93C2E0D0E01A
:102F6000880F991FFC01EE5EFE4F00811181CE019A
:102F70000297B80102C0759567958A95E2F761706E
:102F80008C2F0E94DF052196C930D10581F7DF9192
:102F9000CF911F910F9108950F931F93CF93DF93BC
:102FA000EC018B019A01AC01460F571F57FF02C07D
:102FB0004F5F5F4F55954795232BA1F421E030E0FB
:102FC000B801CE010E940A0ED0930101C093000106
:102FD0001093030100930201DF91CF911F910F9194
:102FE0000C940A1630E020E0B801CE010E940A0ECF
:102FF000F3CF4F925F926F927F928F929F92AF9298
:10300000BF92CF92DF92EF92FF920F931F93CF93D5
:10301000DF9300D000D000D0CDB7DEB749835A830C
:103020006B837C83A980BA808B809C80340182E092
:10303000680E711C240182E0481A51088501035072
:103040001109CC24C394D12C74019301A501B201C0
:10305000C5010E94D60CC5010896085F1F4FD12CF0
:10306000C12C9301AC01B2010E94D60C26960FB67A
:10307000F894DEBF0FBECDBFDF91CF911F910F91AE
:10308000FF90EF90DF90CF90BF90AF909F908F9088
:103090007F906F905F904F9008954F925F926F92E4
:1030A0007F928F929F92AF92BF92CF92DF92EF92D8
:1030B000FF920F931F93CF93DF9300D000D000D0E7
:1030C000CDB7DEB749835A836B837C83A980BA80EE
:1030D0008B809C8034018FEF681A780A240181E08C
:1030E000481A510885010D5F1F4FCC24C394D12C81
:1030F00074019301A501B201C5010E94D60CC5015E
:10310000089708501109D12CC12C9301AC01B201D0
:103110000E94D60C26960FB6F894DEBF0FBECDBF28
:10312000DF91CF911F910F91FF90EF90DF90CF90A3
:10313000BF90AF909F908F907F906F905F904F90D7
:103140000895EF92FF920F931F93CF93DF9300D0D8
:1031500000D000D0CDB7DEB749835A836B837C8320
:1031600009811A81EB80FC8041E050E0B701C80181
:103170000E94DF1250E040E0B701C8010897269690
:103180000FB6F894DEBF0FBECDBFDF91CF911F9178
:103190000F91FF90EF900C94DF1220918F023091ED
:1031A0009002C901079697FD079623E095958795AC
:1031B0002A95E1F720918D0230918E02829FA00125
:1031C000839F500D929F500D112470E060E080911C
:1031D000A8029091A9020C94D4298F929F92AF9249
:1031E000BF920F931F93CF93DF93CDB7DEB7A19715
:1031F0000FB6F894DEBF0FBECDBF19A2423008F45F
:103200004AE08E010F5D1F4F842E912CB12CA12C12
:10321000A50194010E943C28E62FB901CA01EA30B9
:1032200044F5E05DD801EE938D01232B242B252B53
:1032300079F790E080E0109769F0FD01019000209F
:10324000E9F73197AF014A1B5B0BBD0189E892E0BA
:103250000E946406A1960FB6F894DEBF0FBECDBFE4
:10326000DF91CF911F910F91BF90AF909F908F9062
:103270000895E95CD7CF0E94CF29CF92DF92EF92D9
:10328000FF920F931F93CF93DF93FC012281338131
:10329000121613062CF5EC0105811681F12CE12C98
:1032A0008A819B81E816F906ACF4F801C280D380CC
:1032B0008C81811104C0808191810E944629011571
:1032C000110519F0C8010E944629FFEFEF1AFF0A05
:1032D0008601E6CF1B821A821E821D8218861F82FB
:1032E000DF91CF911F910F91FF90EF90DF90CF90E2
:1032F00008950C943D190F931F93CF93DF93EC0126
:1033000077FD41C08A819B8168177907E4F50D81BB
:103310001E816115710579F030E020E0AB0141506C
:103320005109241735073CF4D80112960D911C91D0
:103330002F5F3F4FF6CF01976817790711F4188771
:103340000F83D8011296ED91FC911397672B01F52D
:10335000FE83ED838C81811105C0F801808191810C
:103360000E9446290115110519F0C8010E9446293D
:103370008A819B8101979B838A83892B21F41E82FA
:103380001D8218861F82DF91CF911F910F910895A2
:103390008281938113969C938E9312978F01DACF3B
:1033A000CF93DF93DC0177FD2EC012968D919C9117
:1033B0001397681779073CF51596ED91FC911697D0
:1033C00090E080E08617970729F00280F381E02DD6
:1033D0000196F8CFD081C18114968C9181110EC0D5
:1033E00086E090E00E94AA2826E0ED2FFC2FDC0169
:1033F00001900D922A95E1F7D82FC92F8D2F9C2F80
:10340000DF91CF910895D0E0C0E0F8CF0F931F93E4
:10341000CF93DF93CDB7DEB72C970FB6F894DEBF0E
:103420000FBECDBF8C010E94D01926E0FC01DE0149
:10343000179601900D922A95E1F7F8012481211148
:1034400002C00E94462986E0FE013796DE011196F1
:1034500001900D928A95E1F729813A814B815C8137
:103460006D817E8180E090E02C960FB6F894DEBFEF
:103470000FBECDBFDF91CF911F910F910895CF92D5
:10348000DF92EF92FF920F931F93CF93DF93FC0194
:10349000228133816217730729F077FD20C06217FC
:1034A0007307ECF48A017B01EC018C81882301F124
:1034B00084E090E00E94AA28FC011183008313821B
:1034C00012828A819B81E114F10459F5009721F55C
:1034D000F887EF83FE83ED8301969B838A83DF91D8
:1034E000CF911F910F91FF90EF90DF90CF900895B3
:1034F00086E090E00E94AA286C0186E0F801D601DF
:1035000001900D928A95E1F784E090E00E94AA284C
:10351000FC01D182C082D3CF2D813E8133832283AF
:10352000D9CF8E159F0549F4AF81B8851396FC93CA
:10353000EE931297F887EF83CFCFAD81BE8130E055
:1035400020E041E0E41AF10812965C91129713967C
:103550004C9113972E153F052CF42F5F3F4FA52F4D
:10356000B42FF2CF528343831396FC93EE931297BA
:10357000B3CFAB01FC01628173810C943F1A1F929F
:103580000F920FB60F9211242F933F938F939F9317
:10359000AF93BF9380913B0290913C02A0913D027A
:1035A000B0913E0230913A0223E0230F2D3758F5B7
:1035B0000196A11DB11D20933A0280933B02909386
:1035C0003C02A0933D02B0933E0280913F02909155
:1035D0004002A0914102B09142020196A11DB11D8D
:1035E00080933F0290934002A0934102B093420225
:1035F000BF91AF919F918F913F912F910F900FBEEF
:103600000F901F90189526E8230F0296A11DB11D5B
:10361000D2CF1F920F920FB60F9211242F933F9388
:103620004F935F936F937F938F939F93AF93BF93CA
:10363000EF93FF938091B900887F803609F44AC0E8
:10364000F0F5883209F4A5C018F5803109F499C065
:10365000B8F4882309F4F2C0883009F492C0FF91CD
:10366000EF91BF91AF919F918F917F916F915F91FA
:103670004F913F912F910F900FBE0F901F90189573
:10368000883109F486C0803251F78093090214C052
:10369000803409F49BC040F48033B9F38833F9F6E1
:1036A0008093090285ECAEC0803509F483C088356B
:1036B00009F494C0883499F60E94F713D0CF883962
:1036C00009F48AC038F5883729F050F4883611F0AB
:1036D000803729F683E080932F021092080255C0AC
:1036E000883809F479C0803919F0803809F0B7CFEB
:1036F00080910802803208F06FC0E091080281E0FA
:103700008E0F809308028091BB00F0E0E851FE4FDD
:1037100080833BC0803B39F0D0F4803A09F477C015
:10372000883A09F09CCF84E080932F021092E70141
:103730001092E601F0E0E0E009958091E601811148
:103740000FC081E08093E6011092C60109C0803C61
:1037500009F4A8CF883C09F4A5CF883B09F07FCFB6
:10376000E091E70181E08E0F8093E701F0E0EA53FA
:10377000FE4F80818093BB009091E7018091E6012C
:1037800029C080912C028093BB0085EC8093BC0003
:1037900066CF90912B0280912A02981758F5E091FC
:1037A0002B0281E08E0F80932B02F0E0E65FFD4F4D
:1037B0008081E9CFE0912B0281E08E0F80932B0274
:1037C0008091BB00F0E0E65FFD4F808390912B027B
:1037D00080912A029817C8F285E8D8CFE0912B0291
:1037E00081E08E0F80932B028091BB00F0E0E65FBA
:1037F000FD4F808380912E0281115ECF81E0809306
:103800002D0284EA8093BC0010922F0228CF809171
:103810000802803230F4E0910802F0E0E851FE4FF7
:1038200010820E94F7136091080270E088EE91E028
:10383000F0E0E0E009951092080234CF10920902FE
:103840003BCFADE7B2E013961C921E92129748EE62
:1038500053E060E070E014964D935D936D937C931C
:1038600017978AE291E011969C938E93E9E8F2E033
:103870001382128220E830E03583248380E490E0D4
:10388000978386833187208793878287168A158658
:1038900014861786168681E0858B848B2FEF3FEF89
:1038A000338B228B318B208B878B108E128E118E57
:1038B0008CE491E091838083148E138EB68FA58F54
:1038C00010A2178E8FEF84A385A386A387A389E018
:1038D00080A780E89AE1A6E0B0E085AB96ABA7AB05
:1038E000B0AF80EA96E8A1E0B0E081AF92AFA3AFBD
:1038F000B4AF80E586AF17AEE4E7F2E01382128240
:10390000148216821582108617828CE391E09183CF
:103910008083EBE6F2E01382128214821682158213
:103920001086178291838083E2E6F2E0138212828E
:103930001482168215821086178291838083E9E5AE
:10394000F2E0138212821482168215821086178288
:1039500091838083E0E5F2E0138212821482168262
:1039600015821086178291838083E7E4F2E0138248
:1039700012821482168215821086178291838083A8
:103980000895CF93DF93CDB7DEB7CE57D1090FB6E9
:10399000F894DEBF0FBECDBF789484B5826084BD3D
:1039A00084B5816084BD85B5826085BD85B5816043
:1039B00085BD80916E00816080936E0010928100C1
:1039C000809181008260809381008091810081607C
:1039D000809381008091800081608093800080913D
:1039E000B10084608093B1008091B00081608093C9
:1039F000B00080917A00846080937A0080917A0090
:103A0000826080937A0080917A00816080937A004E
:103A100080917A00806880937A001092C10012E051
:103A2000812F0E9472051F5F1930D1F78DE00E942F
:103A300072058BE00E9472058CE00E9472058AE09C
:103A40000E94720580E00E94720581E00E9472056A
:103A500068E873E180E090E00E9401288091A8026C
:103A60009091A902892B11F10E94CD1820918F020B
:103A70003091900280918D0290918E022132310519
:103A80000CF02FC1B9016052710977FF02C06F5F5E
:103A90007F4F759567958357910997FD019600E2D1
:103AA00010E023E730E04AE855E02EC120918F0274
:103AB00030919002C901079697FD0796B3E095955E
:103AC0008795BA95E1F720918D0230918E02AC0175
:103AD000429FC001439F900D529F900D11240E9460
:103AE000AA289093A9028093A802892B09F0BCCF41
:103AF0000E940A160E94CD180E94BB0581309105D4
:103B000009F0BFC021E020939D0220939E02909374
:103B10009C0280939B0290939A02809399028FE07B
:103B200090E0909396028093950284E190E09093C8
:103B300098028093970247E250E064E771E089E8D9
:103B400092E00E9464060E940A1668EE73E080E02C
:103B500090E00E94320604E610E00E94BB05019747
:103B600011F00C9412270E94CD180E940A1668EEDC
:103B700073E080E090E00E943206809138029091DC
:103B800039020196909339028093380260910201C4
:103B90007091030150E040E080910001909101019B
:103BA0000E94CC17D12CC12C809106019091070165
:103BB000009709F077C260E080E00E94DF0560E0D6
:103BC00081E00E94DF050E940A160E94CD180E9423
:103BD0000A1681E080939D0280939E0281E090E02E
:103BE00090939C0280939B0290939A0280939902F7
:103BF0000FE010E0109396020093950284E190E0AC
:103C0000909398028093970249E050E06CE971E04C
:103C100089E892E00E946406109396020093950250
:103C200088E290E09093980280939702B601DD0CB1
:103C3000880B990B4AE00E94ED180E940A1668E86A
:103C400073E180E090E00E94320684E792E00E94F7
:103C500079198BE692E00E94791982E692E00E943F
:103C6000791989E592E00E94791980E592E00E9435
:103C7000791987E492E00E9479190E94CD180E9478
:103C80000A1683E090E0909307018093060181E09B
:103C900090E0909305018093040184E792E00E94F4
:103CA00079198BE692E00E94791982E692E00E94EF
:103CB000791989E592E00E94791980E592E00E94E5
:103CC000791987E492E00E9479190E94CD180E9428
:103CD0000A1680E090E0892B09F40ECF0E940000C4
:103CE0000BCFB9016054710977FF02C06F5F7F4F3E
:103CF000759567958255910997FD019600E410E04E
:103D000022E530E04AE657E0959587950E94CA1073
:103D100082E08093AB028091A6029091A702892B4A
:103D200009F4EFC08DE38093AA0210923102109241
:103D30003002109244021092430210922F0281E04E
:103D400080932E0210922D0261E082E10E94DF0535
:103D500061E083E10E94DF058091B9008E7F80934E
:103D6000B9008091B9008D7F8093B90088E4809379
:103D7000B80085E48093BC008091B10287FD1DC02E
:103D80000E94720561E08091B1020E94DF0561E04E
:103D900070E080E090E00E94320660E08091B10225
:103DA0000E94DF056AE070E080E090E00E94320649
:103DB00061E08091B1020E94DF058091A60290919E
:103DC000A702892B09F437C12091BE023091BF02AE
:103DD0004091C0025091C10260E074E284EF90E033
:103DE0000E943C28205131094109510956954795B7
:103DF000379527952093B80064E086E895E00E9407
:103E0000F31460918F02615089E892E00E94A81536
:103E100064E082E895E00E94F3148091AB0260E1D7
:103E2000813009F064E189E892E00E94A81564E01D
:103E30008EE795E00E94F3148FE88093C60280918C
:103E40008D0290918E028038910509F00DC180910C
:103E50008F02909190028034910509F015C18091F4
:103E6000AB02813009F0FEC08FE98093C60212E1F7
:103E70006AED89E892E00E94A815612F89E892E036
:103E80000E94A81561E889E892E00E94A815609157
:103E9000C60289E892E00E94A81569ED89E892E0DF
:103EA0000E94A8158091AB0262E2813009F061EFB7
:103EB00089E892E00E94A81566E088E795E00E94F4
:103EC000F3148091A6029091A702892B09F4E0C017
:103ED0002091C2023091C3024091C4025091C502A8
:103EE00060E074E284EF90E00E943C2820513109A8
:103EF0004109510956954795379527952093B80064
:103F0000F7CD8091AF020E9472058091B0020E94AD
:103F100072058091AF02082E000C990BFC01E35A48
:103F2000F54FE491F0E0EE0FFF1FE75BF54F2591B1
:103F300034913093B7022093B602FC01EE58F54F4E
:103F4000E491E093BC028091B002082E000C990B22
:103F5000FC01E35AF54FE491F0E0EE0FFF1FE75B41
:103F6000F54FA591B491B093B902A093B802FC01AA
:103F7000EE58F54FE491E093BD028C91E82BEC9361
:103F80008091A4029091A502892BA1F061E08AE0C2
:103F90000E94DF058AE00E9472058CB580618CBDAD
:103FA0008CB580648CBD8DE00E9472058BE00E9410
:103FB0007205E2CE8091AD020E9472058091AE0240
:103FC0000E9472058091AD02082E000C990BFC0135
:103FD000E35AF54FE491F0E0EE0FFF1FE75BF54F7A
:103FE000259134913093B3022093B202FC01EE5834
:103FF000F54FE491E093BA028091AE02082E000CD6
:10400000990BFC01E35AF54FE491F0E0EE0FFF1F2E
:10401000E75BF54FA591B491B093B502A093B402BC
:10402000FC01EE58F54FE491E093BB028C91E095D2
:10403000E823EC93A1CE8091A4029091A502892B54
:1040400031F08091C7029091C8020E94EF08E09180
:10405000B802F091B90290818091BD0280958923C8
:104060008083CACE8FEC01CF8036910569F48091B0
:104070008F0290919002409739F48091AB02813089
:1040800029F480E18093C60212E0F2CE8FEAFACFE3
:10409000E091B802F091B90280819091BD02892B24
:1040A000808326CD8130910509F0BDC061E080E0BC
:1040B0000E94DF0560E081E00E94DF0500910401BD
:1040C0001091050160E00115110529F0013011057D
:1040D00009F0B6C061E08FE00E94DF0560E080E19A
:1040E0000E94DF050E94BB05019761F501151105CE
:1040F00049F10150110910930501009304018091C9
:104100000001909101012091020130910301820F81
:10411000931F97FD01969595879520E830E0A99625
:104120003FAF2EAFA997AB969FAF8EAFAB97AD9633
:104130001FAE1EAEAD97BE0169597F4F87E492E076
:104140000E94B91A8091490290914A02892B09F480
:10415000BCC010E000E08091490290914A0208172B
:1041600019070CF0B0C0B80187E492E00E94061A6B
:10417000AE962FAFAE97AF963FAFAF97E0964FAFEB
:10418000E097E1965FAFE197E2966FAFE297E39633
:104190007FAFE397AF96EEACFFACAF97B80187E483
:1041A00092E00E94061AE4962FAFE497E5963FAF9F
:1041B000E597E6964FAFE697E7965FAFE797E89605
:1041C0006FAFE897E9967FAFE99758015FEFA51ABF
:1041D000B50A1E141F040CF441C0B80187E492E034
:1041E0000E94061AF42FE52FCB01EA962FAFEA972B
:1041F000EB963FAFEB97EC96FFAFEC97ED96EFAFFA
:10420000ED97EE966FAFEE97EF969FAFEF97A90100
:104210006F2F7E2F0E94F917B80187E492E00E9469
:104220007B19850198CF60E08230910521F00397DA
:1042300009F044CF61E080E00E94DF0561E03BCF00
:1042400060E00230110529F00330110509F04ACF72
:1042500061E08FE00E94DF0561E041CFE7968EAD1F
:104260009FADE79728E0E21AF108A996FFAEEEAEFF
:10427000A997AB969FAF8EAFAB97AD961FAE1EAE14
:10428000AD97AE0149595F4FB80187E492E00E94B3
:104290003F1AB50187E492E00E947B19A8964FADC2
:1042A000A897A9965FADA997AA966FADAA97AB9666
:1042B0007FADAB97AC968FADAC97AD969FADAD97FC
:1042C0000E94F917AECF0E940A1610E000E080911C
:1042D000760290917702081719070CF0C2C0B80156
:1042E00084E792E00E94061A29833A834B835C8319
:1042F0006D837E83E980FA80B80184E792E00E94B2
:10430000061A2F83388749875A876B877C87898568
:104310009A8558014FEFA41AB40A50E8E516F10443
:104320000CF46DC0BC0163507109409100015091C3
:104330000101461757070CF440C09C012D5F3F4F09
:1043400024173507D4F161E08AE00E94DF0564EFAD
:1043500071E080E090E00E94320660E08AE00E9416
:10436000DF05809106019091070101979093070165
:1043700080930601B80184E792E00E94061A2D8717
:104380003E874F87588B698B7A8BED84FE848F84B0
:10439000988841E050E0B401C7010E94FA0F50E054
:1043A00040E0B401C70108970E94FA0FB80184E702
:1043B00092E00E947B1985018ACF20910201309101
:1043C0000301261737073CF0BC016D5F7F4F621772
:1043D00073070CF0B8CFBC0164507109261737077A
:1043E00029F404964817590729F6ADCF4617570701
:1043F00009F604962817390709F0BCCFA4CF28E0A6
:10440000E20EF11CA996FFAEEEAEA997AB969FAF58
:104410008EAFAB97AD961FAE1EAEAD97AE014959AC
:104420005F4FB80184E792E00E943F1AB50184E72C
:1044300092E00E947B19A9960EAD1FADA997AB968D
:10444000EEACFFACAB9741E050E0B701C8010E9471
:10445000FA0F50E040E0B701C80108970E94FA0F38
:10446000AACFF12CE12C80916D0290916E02E8169A
:10447000F9060CF0D1C0B7018BE692E00E94061A53
:104480002B8B3C8B4D8B5E8B6F8B788FAB88BC8876
:10449000B7018BE692E00E94061A298F3A8F4B8F64
:1044A0005C8F6D8F7E8F0B8D1C8D47014FEF841AB3
:1044B000940A50E8A516B1040CF46FC0A80143504B
:1044C00051092091000130910101241735070CF4A6
:1044D0003FC0C801039682179307D4F161E08AE0D8
:1044E0000E94DF0564EF71E080E090E00E943206F8
:1044F00060E08AE00E94DF0580910601909107014B
:1045000001979093070180930601B7018BE692E033
:104510000E94061A2F8F38A349A35AA36BA37CA32A
:104520000F8D18A1A9A0BAA041E050E0B501C801C3
:104530000E942B1150E040E0B501C80108970E948D
:104540002B11B7018BE692E00E947B1974018BCF8F
:104550008091020190910301841795073CF0A80116
:104560004D5F5F4F481759070CF0B8CFA801445072
:1045700051098417950731F40C5F1F4F201731073D
:1045800021F6ACCF2417350709F0BFCF0C5F1F4FC2
:104590008017910709F0B9CFA1CFB7018BE692E060
:1045A0000E94061A2DA33EA34FA358A769A77AA776
:1045B00089A59AA528E0A20EB11CA996BFAEAEAE01
:1045C000A997AB961FAF0EAFAB97AD969FAF8EAFCF
:1045D000AD97AE0149595F4FB7018BE692E00E945B
:1045E0003F1AB4018BE692E00E947B19A9960EADAA
:1045F0001FADA997AB96EEACFFACAB9741E050E096
:10460000B701C8010E942B1150E040E0B701C8017A
:1046100008970E942B119ACF10E000E072E0872EDD
:10462000912C8091640290916502081719070CF093
:10463000AAC0B80182E692E00E94061A2BA73CA706
:104640004DA75EA76FA778ABEBA4FCA4B80182E6E8
:1046500092E00E94061A29AB3AAB4BAB5CAB6DAB58
:104660007EAB8BA99CA958014FEFA41AB40A50E85D
:10467000E516F1040CF456C0BC0163507109409179
:10468000000150910101461757079CF09C012D5FD6
:104690003F4F241735076CF0809106019091070178
:1046A00083309105E9F0019690930701809306010C
:1046B00017C020910201309103012617370734F00B
:1046C000BC016D5F7F4F6217730734F7BC01645004
:1046D000710926173707F1F4049648175907E1F2D4
:1046E000B80182E692E00E94061AF42FE52FCB0172
:1046F0002FAB38AFF9AFEAAF6BAF9CAFA9016F2F0B
:104700007E2F0E94A118B80182E692E00E947B19D8
:10471000850187CF4617570719F7049628173907D9
:10472000F9F6BACF28E0E20EF11CA996FFAEEEAE84
:10473000A997AB969FAF8EAFAB97AD969FAE8EAE5F
:10474000AD97AE0149595F4FB80182E692E00E94F1
:104750003F1AB50182E692E00E947B19A8964FAD00
:10476000A897A9965FADA997AA966FADAA97AB96A1
:104770007FADAB97AC968FADAC97AD969FADAD9737
:104780000E94A118C5CF10E000E063E0862E912CB6
:1047900080915B0290915C02081719070CF0CAC067
:1047A000B80189E592E00E94061A2DAF3EAF4FAFE7
:1047B00021965FAF219722966FAF229723967FAF06
:1047C0002397EDACFEACB80189E592E00E94061A91
:1047D00024962FAF249725963FAF259726964FAF67
:1047E000269727965FAF279728966FAF2897299629
:1047F0007FAF299727968EAD9FAD279758014FEF32
:10480000A41AB40A50E8E516F1040CF462C0BC0125
:1048100063507109409100015091010146175707FB
:104820009CF09C012D5F3F4F241735076CF0809161
:1048300004019091050183309105E9F00196909370
:1048400005018093040117C02091020130910301FA
:104850002617370734F0BC016D5F7F4F621773076F
:1048600034F7BC01645071092617370751F50496D7
:1048700048175907E1F2B80189E592E00E94061A4B
:10488000F42FE52FCB012A962FAF2A972B963FAF17
:104890002B972C96FFAF2C972D96EFAF2D972E963A
:1048A0006FAF2E972F969FAF2F97A9016F2F7E2F57
:1048B0000E944D18B80189E592E00E947B1985019C
:1048C00067CF46175707B9F604962817390799F6A0
:1048D000AECF28E0E20EF11CA996FFAEEEAEA9978E
:1048E000AB969FAF8EAFAB97AD969FAE8EAEAD97AA
:1048F000AE0149595F4FB80189E592E00E943F1A25
:10490000B50189E592E00E947B19A8964FADA89762
:10491000A9965FADA997AA966FADAA97AB967FAD02
:10492000AB97AC968FADAC97AD969FADAD970E940F
:104930004D18C5CFB12CA12C54E0252E312C8091DF
:10494000520290915302A816B9060CF0D3C0B501DB
:1049500080E592E00E94061A60962FAF60976196FC
:104960003FAF619762964FAF629763965FAF639771
:1049700064966FAF649765967FAF659725014FEF9B
:10498000441A540A61968EAD9FAD6197B501803887
:104990009105F4F180E592E00E94061A66962FAF29
:1049A000669767963FAF679768964FAF6897699627
:1049B0005FAF69976A966FAF6A976B967FAF6B9799
:1049C00067968EAC9FAC679769966EAC7FAC699723
:1049D000EE24E394F12C02E010E022E030E0A301A9
:1049E000B40189E892E00E94FF0BB401685071099C
:1049F000F12CE12C22E030E0A30189E892E00E9452
:104A0000FF0BB50180E592E00E947B19520197CF20
:104A100080E592E00E94061A6C962FAF6C976D9617
:104A20003FAF6D976E964FAF6E976F965FAF6F9774
:104A3000A0966FAFA097A1967FAFA1976D960EAD90
:104A40001FAD6D97085F1F4FB50180E592E00E9492
:104A5000061AA2962FAFA297A3963FAFA397A4964C
:104A60004FAFA497A5965FAFA597A6966FAFA697F1
:104A7000A7967FAFA797A5968EAD9FADA597A99650
:104A80001FAF0EAFA997AB969FAF8EAFAB97AD960A
:104A90003FAE2EAEAD97AE0149595F4FB50180E5EF
:104AA00092E00E943F1AB20180E592E00E947B19D9
:104AB000A996AEACBFACA997AB968EAC9FACAB97AA
:104AC000EE24E394F12C02E010E022E030E0A401B7
:104AD000B50189E892E00E94FF0BB50168507109A9
:104AE000F12CE12C22E030E0A40189E892E00E9460
:104AF000FF0B8CCF65E070E080E090E00E94320612
:104B00000E940A16C6016AE070E00E946D283C010E
:104B1000892B09F042C00E94B22727E030E040E034
:104B200050E00E940A287B0110E000E085E0282E7A
:104B3000312C412C512C94E0892E912C22E0A22E74
:104B4000B12CE016F10621F10E94B227A2019101D9
:104B50000E940A286115710509F0CEC0A9969FAE82
:104B60008EAEA99758EF5003C001519F900D1124AC
:104B7000CC96AB969FAF8EAFAB97AD96BFAEAEAEB9
:104B8000AD97BE0169597F4F84E792E00E94B91A40
:104B90000F5F1F4F08301105A1F683E480937C005E
:104BA00080917A00806480937A0080917A0086FDFB
:104BB000FCCF8091780090917900843F51E0950777
:104BC0000CF00CC1609102017091030141E050E0D2
:104BD00080910001909101010E94CC178091000109
:104BE00090910101009771F00497909301018093D7
:104BF00000018091020190910301049790930301B9
:104C000080930201609102017091030150E040E045
:104C100080910001909101010E94CC17C60164E6C9
:104C200070E00E946D285B0170933702609336023A
:104C30002AE030E0C601B9010E946D28CB01B9011C
:104C40000E946D287C01909335028093340270920B
:104C500033026092320204E110E061E08DE00E94D4
:104C6000DF0560E08BE00E94DF0560E08CE00E94E1
:104C7000DF05C5010E94AA1761E070E080E090E0C6
:104C80000E94320661E08BE00E94DF0560E08DE06B
:104C90000E94DF0560E08CE00E94DF05C7010E94F2
:104CA000AA1761E070E080E090E00E94320661E0C7
:104CB0008CE00E94DF0560E08DE00E94DF0560E08F
:104CC0008BE00E94DF05C3010E94AA1763E070E039
:104CD00080E090E00E9432060150110909F0BDCF3A
:104CE0004FEFC41AD40A58EEC51653E0D50611F09A
:104CF0000C94D41D0C94251E61307105D1F4A99635
:104D00009FAE8EAEA99748EF40039001419F300DB2
:104D10001124245C3F4FAB963FAF2EAFAB97AD96BF
:104D20007FAF6EAFAD97BE0169597F4F8BE692E0C2
:104D30002DCF62307105C9F4A9969FAE8EAEA997AA
:104D400058EF5003C001519F900D1124CC96AB96A3
:104D50009FAF8EAFAB97AD961FAE1EAEAD97BE01A7
:104D600069597F4F82E692E011CF63307105C9F433
:104D7000A9969FAE8EAEA99728EF2003C001219F70
:104D8000900D1124CC96AB969FAF8EAFAB97AD969E
:104D90001FAE1EAEAD97BE0169597F4F89E592E007
:104DA000F5CE6430710509F0F3CEA9967FAF6EAFF2
:104DB000A99748EF4003C001419F900D1124CC9664
:104DC000AB969FAF8EAFAB97AD961FAE1EAEAD97B5
:104DD000BE0169597F4F80E592E0D8CE873292407C
:104DE0000CF41CCF609102017091030141E050E08E
:104DF00080910001909101010E94CC1780910201E5
:104E0000909103018034910509F4FCCE20910001BA
:104E1000309101012C5F3F4F30930101209300013D
:104E20000496ECCE64E670E080E090E00E943206EA
:104E30000150110911F00C94AD1D0C94251ECF9357
:104E4000DF93CCE3D1E0D0934802C093470287E4DC
:104E500092E00E943D19D0935102C093500280E528
:104E600092E00E943D19D0935A02C093590289E5FD
:104E700092E00E943D19D0936302C093620282E6E1
:104E800092E00E943D19D0936C02C0936B028BE6B6
:104E900092E00E943D19D0937502C093740284E79A
:104EA00092E00E943D198CE491E090938A028093F5
:104EB00089028091A8029091A902009721F0DF91C8
:104EC000CF910C944629DF91CF9108958F929F92B4
:104ED000AF92BF92CF92DF92EF92FF92CF93DF9388
:104EE000EC01688179818A819B8161157105810559
:104EF000910521F464E279ED8BE597E02DE133EF44
:104F000041E050E00E940A2849015A019B01AC018E
:104F1000A7EAB1E40E9429286B017C01ACEEB4EF52
:104F2000A50194010E943728C60ED71EE81EF91E5F
:104F3000F7FE06C081E0C81AD108E10880E8F80A47
:104F4000C882D982EA82FB82C701B6019F77DF91CE
:104F5000CF91FF90EF90DF90CF90BF90AF909F9058
:104F60008F9008958F929F92AF92BF92CF92DF92CF
:104F7000EF92FF92609108017091090180910A01FE
:104F800090910B01611571058105910521F464E291
:104F900079ED8BE597E02DE133EF41E050E00E94A1
:104FA0000A2849015A019B01AC01A7EAB1E40E9419
:104FB00029286B017C01ACEEB4EFA50194010E949D
:104FC0003728C60ED71EE81EF91EF7FE06C081E080
:104FD000C81AD108E10880E8F80AC0920801D09206
:104FE0000901E0920A01F0920B01C701B6019F7717
:104FF000FF90EF90DF90CF90BF90AF909F908F90F9
:105000000895609308017093090180930A019093B9
:105010000B010895052E97FB1EF400940E94212891
:1050200057FD07D00E943C2807FC03D04EF40C9497
:10503000212850954095309521953F4F4F4F5F4F18
:10504000089590958095709561957F4F8F4F9F4FF4
:1050500008950E945E28A59F900DB49F900DA49F77
:10506000800D911D11240895B7FF0C9429280E94EA
:105070002928821B930B0895A1E21A2EAA1BBB1BA1
:10508000FD010DC0AA1FBB1FEE1FFF1FA217B30714
:10509000E407F50720F0A21BB30BE40BF50B661F2A
:1050A000771F881F991F1A9469F7609570958095EE
:1050B00090959B01AC01BD01CF010895A29FB00165
:1050C000B39FC001A39F700D811D1124911DB29F3C
:1050D000700D811D1124911D089597FB072E16F464
:1050E000009407D077FD09D00E94902807FC05D0D6
:1050F0003EF4909581959F4F0895709561957F4FEF
:1051000008950E945E28332312F48A1B9B0B0C9493
:105110008B280E945E28B7FF0895821B930B089589
:10512000AA1BBB1B51E107C0AA1FBB1FA617B707CD
:1051300010F0A61BB70B881F991F5A95A9F78095E9
:105140009095BC01CD010895EE0FFF1F0590F491DD
:10515000E02D09940F931F93CF93DF938230910535
:1051600010F482E090E0E091CB02F091CC0230E0CC
:1051700020E0B0E0A0E0309799F42115310509F462
:105180004AC0281B390B24303105D8F58A819B8110
:105190006115710589F1FB0193838283FE0111C0C2
:1051A000408151810281138148175907E0F0481767
:1051B000590799F4109761F012960C931297139671
:1051C0001C933296CF01DF91CF911F910F910895DB
:1051D0000093CB021093CC02F4CF2115310551F08E
:1051E0004217530738F0A901DB019A01BD01DF0125
:1051F000F801C1CFEF01F9CF9093CC028093CB029D
:10520000CDCFFE01E20FF31F81939193225031091C
:1052100039832883D7CF2091C9023091CA02232B2A
:1052200041F420910E0130910F013093CA02209376
:10523000C90220910C0130910D012115310541F475
:105240002DB73EB74091100150911101241B350B31
:10525000E091C902F091CA02E217F307A0F42E1BF5
:105260003F0B2817390778F0AC014E5F5F4F2417CA
:10527000350748F04E0F5F1F5093CA024093C90292
:10528000819391939FCFF0E0E0E09CCFCF93DF93A9
:105290000097E9F0FC01329713821282A091CB02B1
:1052A000B091CC02ED0130E020E01097A1F4208114
:1052B0003181820F931F2091C9023091CA022817B1
:1052C000390709F061C0F093CA02E093C902DF9187
:1052D000CF910895EA01CE17DF07E8F54A815B8197
:1052E0009E0141155105B1F7E901FB83EA8349911C
:1052F0005991C40FD51FEC17FD0761F4808191818E
:105300000296840F951FE901998388838281938196
:105310009B838A83F0E0E0E012968D919C91139735
:105320000097B9F52D913C911197CD010296820F0E
:10533000931F2091C9023091CA022817390739F604
:10534000309751F51092CC021092CB02B093CA0262
:10535000A093C902BCCFD383C28340815181840F03
:10536000951FC817D90761F44E5F5F4F88819981F7
:10537000480F591F518340838A819B819383828385
:105380002115310509F0B0CFF093CC02E093CB02A8
:105390009ECFFD01DC01C0CF13821282D7CF81E006
:1053A00090E0F8940C94DB29DC0101C06D9341502E
:1053B0005040E0F7089515E0C7E4D5E004C0FE01D1
:1053C0000E94A4282196C834D107C9F7F894FFCFCA
:1053D0001800200001000300010000000000CD02C1
:1053E00080003F0006005B004F0066006D007D00FE
:1053F00007007F006F00000000006B143E1491173F
:105400009105371428141A1400000000D0193F1A0F
:105410003D197B19A1179417000000002D0B64069D
:105420009117F61338089105C310EE0DEE0FFE0D1F
:1054300049139105F3083B17A807F107370D1A0D1B
:105440005E0CFF0B6B6F6C6179206D6F642069637C
:10545000696E2031302073616E69796520696369F6
:105460006E646520626173696E697A0047616D657B
:06547000204F766572007A
:00000001FF
